:100000000C9446000C945D000C945D000C945D0013
:100010000C945D000C945D000C945D000C945D00EC
:100020000C945D000C945D000C945D000C945D00DC
:100030000C945D000C945D000C945D000C945D00CC
:100040000C945D000C945D000C945D000C945D00BC
:100050000C945D000C945D000C945D000C945D00AC
:100060000C945D000C945D000C945D000C945D009C
:100070000C945D000C945D000C945D000C945D008C
:100080000C945D000C945D000C945D0011241FBE67
:10009000CFEFD0E4DEBFCDBF11E0A0E0B1E0E0E201
:1000A000F2E000E00BBF02C007900D92AE30B10746
:1000B000D9F70E9499000C940E010C940000CF9384
:1000C000DF9300D01F92CDB7DEB789837B836A832D
:1000D00089818A3031F48A819B81BC018DE00E9444
:1000E0005F0080EC90E0FC018081882F90E08072BE
:1000F0009927892BB1F386EC90E02981FC012083BC
:1001000080E090E00F900F900F90DF91CF910895D5
:10011000CF93DF93CDB7DEB78AE790E02AE730E0F0
:10012000F9012081206EFC0120830000DF91CF9136
:100130000895CF93DF931F92CDB7DEB781E290E0B1
:10014000FC01108282E290E02FEFFC01208384E228
:1001500090E02FEFFC01208385E290E0FC0110820B
:100160008AE290E02FEFFC0120838BE290E0FC011B
:1001700010820E94880088E790E0FC0180819181D4
:10018000898385E290E021E03981323108F420E072
:10019000322F2981243210F022E001C020E0320FFA
:1001A0002981263310F024E001C020E0320F29819C
:1001B000283410F028E001C020E0320F29812A35D0
:1001C00010F020E101C020E0320F29812C3610F020
:1001D00020E201C020E0320F29812E3710F020E408
:1001E00001C020E0320F2981203910F020E801C041
:1001F00020E0230FFC0120838BE290E021E0398195
:10020000323A08F420E0322F2981243B10F022E01A
:1002100001C020E0230FFC012083ADCFF894FFCF75
:0E02200000000002000000005F00000000006F
:00000001FF
